S01700004763634170706C69636174696F6E312E737265635B
S11300000C9434000C943E000C943E000C943E007E
S11300100C943E000C943E000C943E000C943E0064
S11300200C943E000C943E000C943E000C943E0054
S11300300C943E000C943E000C943E000C943E0044
S11300400C943E000C943E000C943E000C943E0034
S11300500C943E000C943E000C943E000C943E0024
S11300600C943E000C943E0011241FBECFEFD4E04C
S1130070DEBFCDBF0E9461000C9472000C9400009E
S1130080ECE7F0E0808380818064808380818F7DD1
S11300908083EAE7F0E080818760808380818068E4
S11300A08083808180648083808186FDFDCF209160
S11300B078008091790090E0982F8827820F911D15
S11300C0089517B83D9A16B8C0E280E00E94400037
S11300D0893C910514F0C8B9F8CF80399140ACF748
S10B00E018B8F3CFF894FFCF28
S9030000FC
