S00B00005030312E7372656368
S11300000C9434000C943E000C943E000C943E007E
S11300100C943E000C943E000C943E000C943E0064
S11300200C943E000C943E000C943E000C943E0054
S11300300C943E000C943E000C943E000C943E0044
S11300400C943E000C943E000C943E000C943E0034
S11300500C943E000C943E000C943E000C943E0024
S11300600C943E000C943E0011241FBECFEFD4E04C
S1130070DEBFCDBF0E9440000C9443000C940000EE
S10D0080259A2D9AFFCFF894FFCFC4
S9030000FC
