S00B00005030312E7372656368
S11300000C9434000C943E000C943E000C943E007E
S11300100C943E000C943E000C943E000C943E0064
S11300200C943E000C943E000C943E000C943E0054
S11300300C943E000C943E000C943E000C943E0044
S11300400C943E000C943E000C943E000C943E0034
S11300500C943E000C943E000C943E000C943E0024
S11300600C943E000C943E0011241FBECFEFD4E04C
S1130070DEBFCDBF0E9451000C94A4000C9400007C
S1130080181619066CF420E030E0E9EFF0E031973F
S1130090F1F700C000002F5F3F4F82179307A9F7C5
S11300A008953D9A18B86894BB24B5F80F2EF5E06E
S11300B0EF2EF12CF02DC1E0D0E0CC24C394D12C50
S11300C087010C1B1D0B81E090E00E94400088B169
S11300D08B2588B9CE010E94400088B18B2588B950
S11300E0C8010E9440008FEFC81AD80A84E1C816DC
S11300F0D10449F72196C530D105F9F605E010E0A1
S1130100902EA12ECC24C394D12CE701C01BD10B7B
S113011081E090E00E94400088B18B2588B9892D48
S11301209A2D0E94400088B18B2588B9CE010E9487
S113013040008FEFC81AD80A84E1C816D10441F7E9
S10F014001501109E9F6B7CFF894FFCF85
S9030000FC
